{
  "_format": "hh-sol-artifact-1",
  "contractName": "ArchonMembership",
  "sourceName": "contracts/ArchonMembership.sol",
  "abi": [
    {
      "inputs": [],
      "stateMutability": "nonpayable",
      "type": "constructor"
    },
    {
      "anonymous": false,
      "inputs": [
        {
          "indexed": true,
          "internalType": "address",
          "name": "owner",
          "type": "address"
        },
        {
          "indexed": true,
          "internalType": "address",
          "name": "approved",
          "type": "address"
        },
        {
          "indexed": true,
          "internalType": "uint256",
          "name": "tokenId",
          "type": "uint256"
        }
      ],
      "name": "Approval",
      "type": "event"
    },
    {
      "anonymous": false,
      "inputs": [
        {
          "indexed": true,
          "internalType": "address",
          "name": "owner",
          "type": "address"
        },
        {
          "indexed": true,
          "internalType": "address",
          "name": "operator",
          "type": "address"
        },
        {
          "indexed": false,
          "internalType": "bool",
          "name": "approved",
          "type": "bool"
        }
      ],
      "name": "ApprovalForAll",
      "type": "event"
    },
    {
      "anonymous": false,
      "inputs": [
        {
          "indexed": true,
          "internalType": "address",
          "name": "previousOwner",
          "type": "address"
        },
        {
          "indexed": true,
          "internalType": "address",
          "name": "newOwner",
          "type": "address"
        }
      ],
      "name": "OwnershipTransferred",
      "type": "event"
    },
    {
      "anonymous": false,
      "inputs": [
        {
          "indexed": true,
          "internalType": "address",
          "name": "from",
          "type": "address"
        },
        {
          "indexed": true,
          "internalType": "address",
          "name": "to",
          "type": "address"
        },
        {
          "indexed": true,
          "internalType": "uint256",
          "name": "tokenId",
          "type": "uint256"
        }
      ],
      "name": "Transfer",
      "type": "event"
    },
    {
      "inputs": [
        {
          "internalType": "address",
          "name": "to",
          "type": "address"
        },
        {
          "internalType": "uint256",
          "name": "tokenId",
          "type": "uint256"
        }
      ],
      "name": "approve",
      "outputs": [],
      "stateMutability": "nonpayable",
      "type": "function"
    },
    {
      "inputs": [
        {
          "internalType": "address",
          "name": "owner",
          "type": "address"
        }
      ],
      "name": "balanceOf",
      "outputs": [
        {
          "internalType": "uint256",
          "name": "",
          "type": "uint256"
        }
      ],
      "stateMutability": "view",
      "type": "function"
    },
    {
      "inputs": [
        {
          "internalType": "uint256",
          "name": "tokenId",
          "type": "uint256"
        }
      ],
      "name": "getApproved",
      "outputs": [
        {
          "internalType": "address",
          "name": "",
          "type": "address"
        }
      ],
      "stateMutability": "view",
      "type": "function"
    },
    {
      "inputs": [
        {
          "internalType": "address",
          "name": "owner",
          "type": "address"
        },
        {
          "internalType": "address",
          "name": "operator",
          "type": "address"
        }
      ],
      "name": "isApprovedForAll",
      "outputs": [
        {
          "internalType": "bool",
          "name": "",
          "type": "bool"
        }
      ],
      "stateMutability": "view",
      "type": "function"
    },
    {
      "inputs": [
        {
          "internalType": "address",
          "name": "to",
          "type": "address"
        }
      ],
      "name": "mint",
      "outputs": [
        {
          "internalType": "uint256",
          "name": "tokenId",
          "type": "uint256"
        }
      ],
      "stateMutability": "nonpayable",
      "type": "function"
    },
    {
      "inputs": [],
      "name": "name",
      "outputs": [
        {
          "internalType": "string",
          "name": "",
          "type": "string"
        }
      ],
      "stateMutability": "view",
      "type": "function"
    },
    {
      "inputs": [],
      "name": "nextTokenId",
      "outputs": [
        {
          "internalType": "uint256",
          "name": "",
          "type": "uint256"
        }
      ],
      "stateMutability": "view",
      "type": "function"
    },
    {
      "inputs": [],
      "name": "owner",
      "outputs": [
        {
          "internalType": "address",
          "name": "",
          "type": "address"
        }
      ],
      "stateMutability": "view",
      "type": "function"
    },
    {
      "inputs": [
        {
          "internalType": "uint256",
          "name": "tokenId",
          "type": "uint256"
        }
      ],
      "name": "ownerOf",
      "outputs": [
        {
          "internalType": "address",
          "name": "",
          "type": "address"
        }
      ],
      "stateMutability": "view",
      "type": "function"
    },
    {
      "inputs": [],
      "name": "renounceOwnership",
      "outputs": [],
      "stateMutability": "nonpayable",
      "type": "function"
    },
    {
      "inputs": [
        {
          "internalType": "address",
          "name": "from",
          "type": "address"
        },
        {
          "internalType": "address",
          "name": "to",
          "type": "address"
        },
        {
          "internalType": "uint256",
          "name": "tokenId",
          "type": "uint256"
        }
      ],
      "name": "safeTransferFrom",
      "outputs": [],
      "stateMutability": "nonpayable",
      "type": "function"
    },
    {
      "inputs": [
        {
          "internalType": "address",
          "name": "from",
          "type": "address"
        },
        {
          "internalType": "address",
          "name": "to",
          "type": "address"
        },
        {
          "internalType": "uint256",
          "name": "tokenId",
          "type": "uint256"
        },
        {
          "internalType": "bytes",
          "name": "data",
          "type": "bytes"
        }
      ],
      "name": "safeTransferFrom",
      "outputs": [],
      "stateMutability": "nonpayable",
      "type": "function"
    },
    {
      "inputs": [
        {
          "internalType": "address",
          "name": "operator",
          "type": "address"
        },
        {
          "internalType": "bool",
          "name": "approved",
          "type": "bool"
        }
      ],
      "name": "setApprovalForAll",
      "outputs": [],
      "stateMutability": "nonpayable",
      "type": "function"
    },
    {
      "inputs": [
        {
          "internalType": "bytes4",
          "name": "interfaceId",
          "type": "bytes4"
        }
      ],
      "name": "supportsInterface",
      "outputs": [
        {
          "internalType": "bool",
          "name": "",
          "type": "bool"
        }
      ],
      "stateMutability": "view",
      "type": "function"
    },
    {
      "inputs": [],
      "name": "symbol",
      "outputs": [
        {
          "internalType": "string",
          "name": "",
          "type": "string"
        }
      ],
      "stateMutability": "view",
      "type": "function"
    },
    {
      "inputs": [
        {
          "internalType": "uint256",
          "name": "tokenId",
          "type": "uint256"
        }
      ],
      "name": "tokenURI",
      "outputs": [
        {
          "internalType": "string",
          "name": "",
          "type": "string"
        }
      ],
      "stateMutability": "view",
      "type": "function"
    },
    {
      "inputs": [
        {
          "internalType": "address",
          "name": "from",
          "type": "address"
        },
        {
          "internalType": "address",
          "name": "to",
          "type": "address"
        },
        {
          "internalType": "uint256",
          "name": "tokenId",
          "type": "uint256"
        }
      ],
      "name": "transferFrom",
      "outputs": [],
      "stateMutability": "nonpayable",
      "type": "function"
    },
    {
      "inputs": [
        {
          "internalType": "address",
          "name": "newOwner",
          "type": "address"
        }
      ],
      "name": "transferOwnership",
      "outputs": [],
      "stateMutability": "nonpayable",
      "type": "function"
    }
  ],
  "bytecode": "0x60806040523480156200001157600080fd5b506040518060400160405280601481526020017f415243484f4e2d4958204d656d626572736869700000000000000000000000008152506040518060400160405280600681526020016520a921a427a760d11b8152508160009081620000789190620001a7565b506001620000878282620001a7565b505050620000a46200009e620000aa60201b60201c565b620000ae565b62000273565b3390565b600680546001600160a01b038381166001600160a01b0319831681179093556040519116919082907f8be0079c531659141344cd1fd0a4f28419497f9722a3daafe3b4186f6b6457e090600090a35050565b634e487b7160e01b600052604160045260246000fd5b600181811c908216806200012b57607f821691505b6020821081036200014c57634e487b7160e01b600052602260045260246000fd5b50919050565b601f821115620001a2576000816000526020600020601f850160051c810160208610156200017d5750805b601f850160051c820191505b818110156200019e5782815560010162000189565b5050505b505050565b81516001600160401b03811115620001c357620001c362000100565b620001db81620001d4845462000116565b8462000152565b602080601f831160018114620002135760008415620001fa5750858301515b600019600386901b1c1916600185901b1785556200019e565b600085815260208120601f198616915b82811015620002445788860151825594840194600190910190840162000223565b5085821015620002635787850151600019600388901b60f8161c191681555b5050505050600190811b01905550565b6114e180620002836000396000f3fe608060405234801561001057600080fd5b50600436106101165760003560e01c8063715018a6116100a2578063a22cb46511610071578063a22cb4651461022f578063b88d4fde14610242578063c87b56dd14610255578063e985e9c514610268578063f2fde38b146102a457600080fd5b8063715018a61461020557806375794a3c1461020d5780638da5cb5b1461021657806395d89b411461022757600080fd5b806323b872dd116100e957806323b872dd1461019857806342842e0e146101ab5780636352211e146101be5780636a627842146101d157806370a08231146101f257600080fd5b806301ffc9a71461011b57806306fdde0314610143578063081812fc14610158578063095ea7b314610183575b600080fd5b61012e61012936600461104b565b6102b7565b60405190151581526020015b60405180910390f35b61014b610309565b60405161013a91906110b8565b61016b6101663660046110cb565b61039b565b6040516001600160a01b03909116815260200161013a565b6101966101913660046110fb565b6103c2565b005b6101966101a6366004611125565b6104dc565b6101966101b9366004611125565b61050d565b61016b6101cc3660046110cb565b610528565b6101e46101df366004611161565b610588565b60405190815260200161013a565b6101e4610200366004611161565b6105b7565b61019661063d565b6101e460075481565b6006546001600160a01b031661016b565b61014b610651565b61019661023d36600461117c565b610660565b6101966102503660046111ce565b61066f565b61014b6102633660046110cb565b6106a7565b61012e6102763660046112aa565b6001600160a01b03918216600090815260056020908152604080832093909416825291909152205460ff1690565b6101966102b2366004611161565b61071b565b60006001600160e01b031982166380ac58cd60e01b14806102e857506001600160e01b03198216635b5e139f60e01b145b8061030357506301ffc9a760e01b6001600160e01b03198316145b92915050565b606060008054610318906112dd565b80601f0160208091040260200160405190810160405280929190818152602001828054610344906112dd565b80156103915780601f1061036657610100808354040283529160200191610391565b820191906000526020600020905b81548152906001019060200180831161037457829003601f168201915b5050505050905090565b60006103a682610794565b506000908152600460205260409020546001600160a01b031690565b60006103cd82610528565b9050806001600160a01b0316836001600160a01b03160361043f5760405162461bcd60e51b815260206004820152602160248201527f4552433732313a20617070726f76616c20746f2063757272656e74206f776e656044820152603960f91b60648201526084015b60405180910390fd5b336001600160a01b038216148061045b575061045b8133610276565b6104cd5760405162461bcd60e51b815260206004820152603d60248201527f4552433732313a20617070726f76652063616c6c6572206973206e6f7420746f60448201527f6b656e206f776e6572206f7220617070726f76656420666f7220616c6c0000006064820152608401610436565b6104d783836107f3565b505050565b6104e63382610861565b6105025760405162461bcd60e51b815260040161043690611317565b6104d78383836108e0565b6104d78383836040518060200160405280600081525061066f565b6000818152600260205260408120546001600160a01b0316806103035760405162461bcd60e51b8152602060048201526018602482015277115490cdcc8c4e881a5b9d985b1a59081d1bdad95b88125160421b6044820152606401610436565b6000610592610a44565b6007600081546105a190611364565b918290555090506105b28282610a9e565b919050565b60006001600160a01b0382166106215760405162461bcd60e51b815260206004820152602960248201527f4552433732313a2061646472657373207a65726f206973206e6f7420612076616044820152683634b21037bbb732b960b91b6064820152608401610436565b506001600160a01b031660009081526003602052604090205490565b610645610a44565b61064f6000610ab8565b565b606060018054610318906112dd565b61066b338383610b0a565b5050565b6106793383610861565b6106955760405162461bcd60e51b815260040161043690611317565b6106a184848484610bd8565b50505050565b60606106b282610794565b60006106c960408051602081019091526000815290565b905060008151116106e95760405180602001604052806000815250610714565b806106f384610c0b565b60405160200161070492919061138b565b6040516020818303038152906040525b9392505050565b610723610a44565b6001600160a01b0381166107885760405162461bcd60e51b815260206004820152602660248201527f4f776e61626c653a206e6577206f776e657220697320746865207a65726f206160448201526564647265737360d01b6064820152608401610436565b61079181610ab8565b50565b6000818152600260205260409020546001600160a01b03166107915760405162461bcd60e51b8152602060048201526018602482015277115490cdcc8c4e881a5b9d985b1a59081d1bdad95b88125160421b6044820152606401610436565b600081815260046020526040902080546001600160a01b0319166001600160a01b038416908117909155819061082882610528565b6001600160a01b03167f8c5be1e5ebec7d5bd14f71427d1e84f3dd0314c0f7b2291e5b200ac8c7c3b92560405160405180910390a45050565b60008061086d83610528565b9050806001600160a01b0316846001600160a01b031614806108b457506001600160a01b0380821660009081526005602090815260408083209388168352929052205460ff165b806108d85750836001600160a01b03166108cd8461039b565b6001600160a01b0316145b949350505050565b826001600160a01b03166108f382610528565b6001600160a01b0316146109195760405162461bcd60e51b8152600401610436906113ba565b6001600160a01b03821661097b5760405162461bcd60e51b8152602060048201526024808201527f4552433732313a207472616e7366657220746f20746865207a65726f206164646044820152637265737360e01b6064820152608401610436565b826001600160a01b031661098e82610528565b6001600160a01b0316146109b45760405162461bcd60e51b8152600401610436906113ba565b600081815260046020908152604080832080546001600160a01b03199081169091556001600160a01b0387811680865260038552838620805460001901905590871680865283862080546001019055868652600290945282852080549092168417909155905184937fddf252ad1be2c89b69c2b068fc378daa952ba7f163c4a11628f55a4df523b3ef91a4505050565b6006546001600160a01b0316331461064f5760405162461bcd60e51b815260206004820181905260248201527f4f776e61626c653a2063616c6c6572206973206e6f7420746865206f776e65726044820152606401610436565b61066b828260405180602001604052806000815250610c9e565b600680546001600160a01b038381166001600160a01b0319831681179093556040519116919082907f8be0079c531659141344cd1fd0a4f28419497f9722a3daafe3b4186f6b6457e090600090a35050565b816001600160a01b0316836001600160a01b031603610b6b5760405162461bcd60e51b815260206004820152601960248201527f4552433732313a20617070726f766520746f2063616c6c6572000000000000006044820152606401610436565b6001600160a01b03838116600081815260056020908152604080832094871680845294825291829020805460ff191686151590811790915591519182527f17307eab39ab6107e8899845ad3d59bd9653f200f220920489ca2b5937696c31910160405180910390a3505050565b610be38484846108e0565b610bef84848484610cd1565b6106a15760405162461bcd60e51b8152600401610436906113ff565b60606000610c1883610dd2565b600101905060008167ffffffffffffffff811115610c3857610c386111b8565b6040519080825280601f01601f191660200182016040528015610c62576020820181803683370190505b5090508181016020015b600019016f181899199a1a9b1b9c1cb0b131b232b360811b600a86061a8153600a8504945084610c6c57509392505050565b610ca88383610eaa565b610cb56000848484610cd1565b6104d75760405162461bcd60e51b8152600401610436906113ff565b60006001600160a01b0384163b15610dc757604051630a85bd0160e11b81526001600160a01b0385169063150b7a0290610d15903390899088908890600401611451565b6020604051808303816000875af1925050508015610d50575060408051601f3d908101601f19168201909252610d4d9181019061148e565b60015b610dad573d808015610d7e576040519150601f19603f3d011682016040523d82523d6000602084013e610d83565b606091505b508051600003610da55760405162461bcd60e51b8152600401610436906113ff565b805181602001fd5b6001600160e01b031916630a85bd0160e11b1490506108d8565b506001949350505050565b60008072184f03e93ff9f4daa797ed6e38ed64bf6a1f0160401b8310610e115772184f03e93ff9f4daa797ed6e38ed64bf6a1f0160401b830492506040015b6d04ee2d6d415b85acef81000000008310610e3d576d04ee2d6d415b85acef8100000000830492506020015b662386f26fc100008310610e5b57662386f26fc10000830492506010015b6305f5e1008310610e73576305f5e100830492506008015b6127108310610e8757612710830492506004015b60648310610e99576064830492506002015b600a83106103035760010192915050565b6001600160a01b038216610f005760405162461bcd60e51b815260206004820181905260248201527f4552433732313a206d696e7420746f20746865207a65726f20616464726573736044820152606401610436565b6000818152600260205260409020546001600160a01b031615610f655760405162461bcd60e51b815260206004820152601c60248201527f4552433732313a20746f6b656e20616c7265616479206d696e746564000000006044820152606401610436565b6000818152600260205260409020546001600160a01b031615610fca5760405162461bcd60e51b815260206004820152601c60248201527f4552433732313a20746f6b656e20616c7265616479206d696e746564000000006044820152606401610436565b6001600160a01b038216600081815260036020908152604080832080546001019055848352600290915280822080546001600160a01b0319168417905551839291907fddf252ad1be2c89b69c2b068fc378daa952ba7f163c4a11628f55a4df523b3ef908290a45050565b6001600160e01b03198116811461079157600080fd5b60006020828403121561105d57600080fd5b813561071481611035565b60005b8381101561108357818101518382015260200161106b565b50506000910152565b600081518084526110a4816020860160208601611068565b601f01601f19169290920160200192915050565b602081526000610714602083018461108c565b6000602082840312156110dd57600080fd5b5035919050565b80356001600160a01b03811681146105b257600080fd5b6000806040838503121561110e57600080fd5b611117836110e4565b946020939093013593505050565b60008060006060848603121561113a57600080fd5b611143846110e4565b9250611151602085016110e4565b9150604084013590509250925092565b60006020828403121561117357600080fd5b610714826110e4565b6000806040838503121561118f57600080fd5b611198836110e4565b9150602083013580151581146111ad57600080fd5b809150509250929050565b634e487b7160e01b600052604160045260246000fd5b600080600080608085870312156111e457600080fd5b6111ed856110e4565b93506111fb602086016110e4565b925060408501359150606085013567ffffffffffffffff8082111561121f57600080fd5b818701915087601f83011261123357600080fd5b813581811115611245576112456111b8565b604051601f8201601f19908116603f0116810190838211818310171561126d5761126d6111b8565b816040528281528a602084870101111561128657600080fd5b82602086016020830137600060208483010152809550505050505092959194509250565b600080604083850312156112bd57600080fd5b6112c6836110e4565b91506112d4602084016110e4565b90509250929050565b600181811c908216806112f157607f821691505b60208210810361131157634e487b7160e01b600052602260045260246000fd5b50919050565b6020808252602d908201527f4552433732313a2063616c6c6572206973206e6f7420746f6b656e206f776e6560408201526c1c881bdc88185c1c1c9bdd9959609a1b606082015260800190565b60006001820161138457634e487b7160e01b600052601160045260246000fd5b5060010190565b6000835161139d818460208801611068565b8351908301906113b1818360208801611068565b01949350505050565b60208082526025908201527f4552433732313a207472616e736665722066726f6d20696e636f72726563742060408201526437bbb732b960d91b606082015260800190565b60208082526032908201527f4552433732313a207472616e7366657220746f206e6f6e20455243373231526560408201527131b2b4bb32b91034b6b83632b6b2b73a32b960711b606082015260800190565b6001600160a01b03858116825284166020820152604081018390526080606082018190526000906114849083018461108c565b9695505050505050565b6000602082840312156114a057600080fd5b81516107148161103556fea26469706673582212201de4fe45aad2765c9d9aa52fe5202fdfa7b9e520da7c227d02c0aff8ef6a637564736f6c63430008180033",
  "linkReferences": {},
  "deployedLinkReferences": {}
}